:100000000C9434000C9446000C9446000C9446006A
:100010000C9446000C9446000C9446000C94460048
:100020000C9446000C9446000C9446000C94460038
:100030000C9446000C9446000C9446000C94460028
:100040000C9446000C9446000C9418010C94460045
:100050000C9446000C9446000C9446000C94460008
:100060000C9446000C94460011241FBECFEFD8E03C
:10007000DEBFCDBF21E0A0E0B1E001C01D92A830FD
:10008000B207E1F70E945F010C9480010C9400001C
:10009000813051F087FF0AC0805891E0803108F428
:1000A00090E0892F90E0089583E0FCCF82E0FACFC2
:1000B000082E000C990BCC978C30910598F4409148
:1000C00000015091010121E030E0B90102C0660F4A
:1000D000771F8A95E2F7CB01842B952B9093010132
:1000E0008093000108958091C6000895CF93C09138
:1000F000C6008C2F0E9448009C01809106019091BF
:1001000007018130910571F082309105B1F0892BA2
:1001100091F4232B81F481E090E090930701809388
:10012000060109C022303105B9F4C09304013093AF
:10013000070120930601CF9108952230310549F43B
:10014000C093050180910401909105010E9458001F
:10015000E2CF21153105F9F22130310561F7109216
:10016000070110920601E7CF84B18F6384B98AB189
:100170008C6F8AB98FE39FE10197F1F700C000000F
:1001800015B81BB88FE39FE10197F1F700C000009D
:10019000089585B1807C85B98BB183708BB98091CE
:1001A00002019091030180FD5D9A8091020190917E
:1001B000030181FD5C9A809102019091030182FD0F
:1001C0005B9A809102019091030183FD5A9A80917C
:1001D00002019091030184FD299A8091020190917E
:1001E000030185FD289A809102019091030186FD0B
:1001F0005F9A809102019091030187FD5E9A809140
:1002000002019091030190FD2D9A8091020190913D
:10021000030191FD2C9A809102019091030192FDBE
:100220002B9A809102019091030193FD2A9A0895DF
:100230001F920F920FB60F9211242F933F934F935B
:100240005F936F937F938F939F93AF93BF93EF933E
:10025000FF930E947600FF91EF91BF91AF919F9124
:100260008F917F916F915F914F913F912F910F905F
:100270000FBE0F901F9018958FE18093C4001092CD
:10028000C500E1ECF0E0808180618083E2ECF0E089
:1002900080818660808308959091C00095FFFCCF97
:1002A0008093C6000895CF93DF93EC01899181116B
:1002B00003C0DF91CF9108950E944C01F7CF0E94B7
:1002C0003C010E94B40078948091C10080688093C2
:1002D000C1008FE99FE00197F1F700C00000F8949A
:1002E000809100019091010190930301809302019C
:1002F00010920101109200010E94C9007894E9CF88
:04030000F894FFCF9F
:00000001FF
