:100000000C9434000C9446000C9446000C9446006A
:100010000C9446000C9446000C9446000C94460048
:100020000C9446000C9446000C9446000C94460038
:100030000C9446000C9446000C9446000C94460028
:100040000C9446000C9446000C9418010C94460045
:100050000C9446000C9446000C9446000C94460008
:100060000C9446000C94460011241FBECFEFD8E03C
:10007000DEBFCDBF21E0A0E0B1E001C01D92A930FC
:10008000B207E1F70E9451010C9462010C94000048
:10009000813051F087FF0AC0805891E0803108F428
:1000A00090E0892F90E0089583E0FCCF82E0FACFC2
:1000B000082E000C990BCC978C30910598F4409148
:1000C00000015091010121E030E0B90102C0660F4A
:1000D000771F8A95E2F7CB01842B952B9093010132
:1000E0008093000108958091C6000895CF93C09138
:1000F000C6008C2F0E9448009C01809107019091BE
:1001000008018130910571F082309105B1F0892BA1
:1001100091F4232B81F481E090E090930801809387
:10012000070109C022303105B9F4C09305013093AD
:10013000080120930701CF9108952230310549F439
:10014000C093060180910501909106010E9458001C
:10015000E2CF21153105F9F22130310561F7109216
:10016000080110920701E7CF84B1816184B98AB197
:100170008AB98FE39CE90197F1F700C0000015B838
:1001800081E08BB98FE39CE90197F1F700C0000093
:10019000089585B1807C85B98BB183708BB98091CE
:1001A00002019091030180FD5D9A8091020190917E
:1001B000030181FD5C9A809102019091030182FD0F
:1001C0005B9A809102019091030183FD5A9A80917C
:1001D00002019091030184FD299A8091020190917E
:1001E000030185FD289A809102019091030186FD0B
:1001F0005F9A809102019091030187FD5E9A809140
:1002000002019091030190FD2D9A8091020190913D
:10021000030191FD2C9A809102019091030192FDBE
:100220002B9A809102019091030193FD2A9A0895DF
:100230001F921FB61F9211248F9380910401811584
:1002400041F0109204012D9A8F911F901FBE1F90B4
:10025000189581E0809304012D98F6CF8FE180936B
:10026000C4001092C500E1ECF0E0808188618083D9
:10027000E2ECF0E080818660808308959091C00078
:1002800095FFFCCF8093C6000895CF93DF93EC01D8
:100290008991811103C0DF91CF9108950E943E01A1
:1002A000F7CF0E94B4000E942E018FB780688FBFE5
:1002B0002FEF89E698E1215080409040E1F700C09F
:0802C0000000F6CFF894FFCF17
:00000001FF
