:100000000C9434000C9449000C9449000C94490061
:100010000C9449000C9449000C9449000C9449003C
:100020000C9449000C9449000C9449000C9449002C
:100030000C9449000C9449000C9449000C9449001C
:100040000C9449000C9449000C9449000C9449000C
:100050000C9449000C9449000C9449000C944900FC
:100060000C9449000C94490011241FBECFEFD8E036
:10007000DEBFCDBF11E0A0E0B1E0ECEEF0E002C0E9
:1000800005900D92A230B107D9F70E9471000C942F
:1000900074000C94000080E090E0089587E680935F
:1000A000C4001092C500E1ECF0E08081886180839B
:1000B000E2ECF0E080818660808308959091C0003A
:1000C00095FFFCCF8093C6000895CF93DF93EC019A
:1000D0008991811103C0DF91CF9108950E945E0044
:0C00E000F7CF0E944E00FFCFF894FFCF36
:0200EC00010011
:00000001FF
