:100000000C9434000C943E000C943E000C943E0082
:100010000C943E000C943E000C943E000C943E0068
:100020000C943E000C943E000C943E000C943E0058
:100030000C943E000C943E000C943E000C943E0048
:100040000C943E000C943E000C943E000C943E0038
:100050000C943E000C943E000C943E000C943E0028
:100060000C943E000C943E0011241FBECFEFD8E04C
:10007000DEBFCDBF0E9463000C9464000C940000AE
:1000800087E68093C4001092C500E1ECF0E0808127
:1000900088618083E2ECF0E080818660808308954F
:1000A0009091C00095FFFCCF8093C6000895CF9338
:1000B000DF93EC018991811103C0DF91CF91089505
:0C00C0000E945000F7CF0895F894FFCF85
:00000001FF
